{
  "contractName": "Course",
  "abi": [
    {
      "inputs": [
        {
          "internalType": "bytes32",
          "name": "",
          "type": "bytes32"
        }
      ],
      "name": "classes",
      "outputs": [
        {
          "internalType": "string",
          "name": "completedDate",
          "type": "string"
        },
        {
          "internalType": "string",
          "name": "name",
          "type": "string"
        },
        {
          "internalType": "string",
          "name": "detail",
          "type": "string"
        },
        {
          "internalType": "string",
          "name": "teacher",
          "type": "string"
        },
        {
          "internalType": "string",
          "name": "category",
          "type": "string"
        }
      ],
      "stateMutability": "view",
      "type": "function"
    },
    {
      "inputs": [
        {
          "internalType": "string",
          "name": "userId",
          "type": "string"
        },
        {
          "internalType": "uint256",
          "name": "classId",
          "type": "uint256"
        },
        {
          "internalType": "string",
          "name": "completedDate",
          "type": "string"
        },
        {
          "internalType": "string",
          "name": "name",
          "type": "string"
        },
        {
          "internalType": "string",
          "name": "detail",
          "type": "string"
        },
        {
          "internalType": "string",
          "name": "teacher",
          "type": "string"
        },
        {
          "internalType": "string",
          "name": "category",
          "type": "string"
        }
      ],
      "name": "save",
      "outputs": [
        {
          "internalType": "bytes32",
          "name": "",
          "type": "bytes32"
        }
      ],
      "stateMutability": "nonpayable",
      "type": "function"
    },
    {
      "inputs": [],
      "name": "readAll",
      "outputs": [
        {
          "components": [
            {
              "internalType": "string",
              "name": "userId",
              "type": "string"
            },
            {
              "internalType": "uint256",
              "name": "classId",
              "type": "uint256"
            },
            {
              "internalType": "string",
              "name": "completedDate",
              "type": "string"
            },
            {
              "internalType": "string",
              "name": "name",
              "type": "string"
            },
            {
              "internalType": "string",
              "name": "detail",
              "type": "string"
            },
            {
              "internalType": "string",
              "name": "teacher",
              "type": "string"
            },
            {
              "internalType": "string",
              "name": "category",
              "type": "string"
            }
          ],
          "internalType": "struct Course.class[]",
          "name": "",
          "type": "tuple[]"
        }
      ],
      "stateMutability": "view",
      "type": "function"
    },
    {
      "inputs": [
        {
          "internalType": "string",
          "name": "userId",
          "type": "string"
        },
        {
          "internalType": "uint256",
          "name": "classId",
          "type": "uint256"
        }
      ],
      "name": "read",
      "outputs": [
        {
          "components": [
            {
              "internalType": "string",
              "name": "completedDate",
              "type": "string"
            },
            {
              "internalType": "string",
              "name": "name",
              "type": "string"
            },
            {
              "internalType": "string",
              "name": "detail",
              "type": "string"
            },
            {
              "internalType": "string",
              "name": "teacher",
              "type": "string"
            },
            {
              "internalType": "string",
              "name": "category",
              "type": "string"
            }
          ],
          "internalType": "struct Course.classData",
          "name": "",
          "type": "tuple"
        }
      ],
      "stateMutability": "view",
      "type": "function"
    }
  ],
  "bytecode": "0x608060405234801561001057600080fd5b50611627806100206000396000f3fe608060405234801561001057600080fd5b506004361061004c5760003560e01c8063305eca391461005157806341f654f714610081578063521170a31461009f578063e50c4687146100d3575b600080fd5b61006b60048036038101906100669190610f71565b610103565b60405161007891906110e7565b60405180910390f35b610089610439565b6040516100969190611299565b60405180910390f35b6100b960048036038101906100b491906112f1565b61080e565b6040516100ca959493929190611368565b60405180910390f35b6100ed60048036038101906100e891906113de565b610aec565b6040516100fa9190611537565b60405180910390f35b61010b610d0f565b60008383604051602001610120929190611561565b604051602081830303815290604052805190602001209050600160008281526020019081526020016000206040518060a0016040529081600082018054610166906115c0565b80601f0160208091040260200160405190810160405280929190818152602001828054610192906115c0565b80156101df5780601f106101b4576101008083540402835291602001916101df565b820191906000526020600020905b8154815290600101906020018083116101c257829003601f168201915b505050505081526020016001820180546101f8906115c0565b80601f0160208091040260200160405190810160405280929190818152602001828054610224906115c0565b80156102715780601f1061024657610100808354040283529160200191610271565b820191906000526020600020905b81548152906001019060200180831161025457829003601f168201915b5050505050815260200160028201805461028a906115c0565b80601f01602080910402602001604051908101604052809291908181526020018280546102b6906115c0565b80156103035780601f106102d857610100808354040283529160200191610303565b820191906000526020600020905b8154815290600101906020018083116102e657829003601f168201915b5050505050815260200160038201805461031c906115c0565b80601f0160208091040260200160405190810160405280929190818152602001828054610348906115c0565b80156103955780601f1061036a57610100808354040283529160200191610395565b820191906000526020600020905b81548152906001019060200180831161037857829003601f168201915b505050505081526020016004820180546103ae906115c0565b80601f01602080910402602001604051908101604052809291908181526020018280546103da906115c0565b80156104275780601f106103fc57610100808354040283529160200191610427565b820191906000526020600020905b81548152906001019060200180831161040a57829003601f168201915b50505050508152505091505092915050565b60606000805480602002602001604051908101604052809291908181526020016000905b8282101561080557838290600052602060002090600702016040518060e0016040529081600082018054610490906115c0565b80601f01602080910402602001604051908101604052809291908181526020018280546104bc906115c0565b80156105095780601f106104de57610100808354040283529160200191610509565b820191906000526020600020905b8154815290600101906020018083116104ec57829003601f168201915b505050505081526020016001820154815260200160028201805461052c906115c0565b80601f0160208091040260200160405190810160405280929190818152602001828054610558906115c0565b80156105a55780601f1061057a576101008083540402835291602001916105a5565b820191906000526020600020905b81548152906001019060200180831161058857829003601f168201915b505050505081526020016003820180546105be906115c0565b80601f01602080910402602001604051908101604052809291908181526020018280546105ea906115c0565b80156106375780601f1061060c57610100808354040283529160200191610637565b820191906000526020600020905b81548152906001019060200180831161061a57829003601f168201915b50505050508152602001600482018054610650906115c0565b80601f016020809104026020016040519081016040528092919081815260200182805461067c906115c0565b80156106c95780601f1061069e576101008083540402835291602001916106c9565b820191906000526020600020905b8154815290600101906020018083116106ac57829003601f168201915b505050505081526020016005820180546106e2906115c0565b80601f016020809104026020016040519081016040528092919081815260200182805461070e906115c0565b801561075b5780601f106107305761010080835404028352916020019161075b565b820191906000526020600020905b81548152906001019060200180831161073e57829003601f168201915b50505050508152602001600682018054610774906115c0565b80601f01602080910402602001604051908101604052809291908181526020018280546107a0906115c0565b80156107ed5780601f106107c2576101008083540402835291602001916107ed565b820191906000526020600020905b8154815290600101906020018083116107d057829003601f168201915b5050505050815250508152602001906001019061045d565b50505050905090565b6001602052806000526040600020600091509050806000018054610831906115c0565b80601f016020809104026020016040519081016040528092919081815260200182805461085d906115c0565b80156108aa5780601f1061087f576101008083540402835291602001916108aa565b820191906000526020600020905b81548152906001019060200180831161088d57829003601f168201915b5050505050908060010180546108bf906115c0565b80601f01602080910402602001604051908101604052809291908181526020018280546108eb906115c0565b80156109385780601f1061090d57610100808354040283529160200191610938565b820191906000526020600020905b81548152906001019060200180831161091b57829003601f168201915b50505050509080600201805461094d906115c0565b80601f0160208091040260200160405190810160405280929190818152602001828054610979906115c0565b80156109c65780601f1061099b576101008083540402835291602001916109c6565b820191906000526020600020905b8154815290600101906020018083116109a957829003601f168201915b5050505050908060030180546109db906115c0565b80601f0160208091040260200160405190810160405280929190818152602001828054610a07906115c0565b8015610a545780601f10610a2957610100808354040283529160200191610a54565b820191906000526020600020905b815481529060010190602001808311610a3757829003601f168201915b505050505090806004018054610a69906115c0565b80601f0160208091040260200160405190810160405280929190818152602001828054610a95906115c0565b8015610ae25780601f10610ab757610100808354040283529160200191610ae2565b820191906000526020600020905b815481529060010190602001808311610ac557829003601f168201915b5050505050905085565b6000806040518060e001604052808a81526020018981526020018881526020018781526020018681526020018581526020018481525090806001815401808255809150506001900390600052602060002090600702016000909190919091506000820151816000019080519060200190610b67929190610d3e565b50602082015181600101556040820151816002019080519060200190610b8e929190610d3e565b506060820151816003019080519060200190610bab929190610d3e565b506080820151816004019080519060200190610bc8929190610d3e565b5060a0820151816005019080519060200190610be5929190610d3e565b5060c0820151816006019080519060200190610c02929190610d3e565b50505060008888604051602001610c1a929190611561565b6040516020818303038152906040528051906020012090506040518060a0016040528088815260200187815260200186815260200185815260200184815250600160008381526020019081526020016000206000820151816000019080519060200190610c88929190610d3e565b506020820151816001019080519060200190610ca5929190610d3e565b506040820151816002019080519060200190610cc2929190610d3e565b506060820151816003019080519060200190610cdf929190610d3e565b506080820151816004019080519060200190610cfc929190610d3e565b5090505080915050979650505050505050565b6040518060a0016040528060608152602001606081526020016060815260200160608152602001606081525090565b828054610d4a906115c0565b90600052602060002090601f016020900481019282610d6c5760008555610db3565b82601f10610d8557805160ff1916838001178555610db3565b82800160010185558215610db3579182015b82811115610db2578251825591602001919060010190610d97565b5b509050610dc09190610dc4565b5090565b5b80821115610ddd576000816000905550600101610dc5565b5090565b6000604051905090565b600080fd5b600080fd5b600080fd5b600080fd5b6000601f19601f8301169050919050565b7f4e487b7100000000000000000000000000000000000000000000000000000000600052604160045260246000fd5b610e4882610dff565b810181811067ffffffffffffffff82111715610e6757610e66610e10565b5b80604052505050565b6000610e7a610de1565b9050610e868282610e3f565b919050565b600067ffffffffffffffff821115610ea657610ea5610e10565b5b610eaf82610dff565b9050602081019050919050565b82818337600083830152505050565b6000610ede610ed984610e8b565b610e70565b905082815260208101848484011115610efa57610ef9610dfa565b5b610f05848285610ebc565b509392505050565b600082601f830112610f2257610f21610df5565b5b8135610f32848260208601610ecb565b91505092915050565b6000819050919050565b610f4e81610f3b565b8114610f5957600080fd5b50565b600081359050610f6b81610f45565b92915050565b60008060408385031215610f8857610f87610deb565b5b600083013567ffffffffffffffff811115610fa657610fa5610df0565b5b610fb285828601610f0d565b9250506020610fc385828601610f5c565b9150509250929050565b600081519050919050565b600082825260208201905092915050565b60005b83811015611007578082015181840152602081019050610fec565b83811115611016576000848401525b50505050565b600061102782610fcd565b6110318185610fd8565b9350611041818560208601610fe9565b61104a81610dff565b840191505092915050565b600060a0830160008301518482036000860152611072828261101c565b9150506020830151848203602086015261108c828261101c565b915050604083015184820360408601526110a6828261101c565b915050606083015184820360608601526110c0828261101c565b915050608083015184820360808601526110da828261101c565b9150508091505092915050565b600060208201905081810360008301526111018184611055565b905092915050565b600081519050919050565b600082825260208201905092915050565b6000819050602082019050919050565b61113e81610f3b565b82525050565b600060e0830160008301518482036000860152611161828261101c565b91505060208301516111766020860182611135565b506040830151848203604086015261118e828261101c565b915050606083015184820360608601526111a8828261101c565b915050608083015184820360808601526111c2828261101c565b91505060a083015184820360a08601526111dc828261101c565b91505060c083015184820360c08601526111f6828261101c565b9150508091505092915050565b600061120f8383611144565b905092915050565b6000602082019050919050565b600061122f82611109565b6112398185611114565b93508360208202850161124b85611125565b8060005b8581101561128757848403895281516112688582611203565b945061127383611217565b925060208a0199505060018101905061124f565b50829750879550505050505092915050565b600060208201905081810360008301526112b38184611224565b905092915050565b6000819050919050565b6112ce816112bb565b81146112d957600080fd5b50565b6000813590506112eb816112c5565b92915050565b60006020828403121561130757611306610deb565b5b6000611315848285016112dc565b91505092915050565b600082825260208201905092915050565b600061133a82610fcd565b611344818561131e565b9350611354818560208601610fe9565b61135d81610dff565b840191505092915050565b600060a0820190508181036000830152611382818861132f565b90508181036020830152611396818761132f565b905081810360408301526113aa818661132f565b905081810360608301526113be818561132f565b905081810360808301526113d2818461132f565b90509695505050505050565b600080600080600080600060e0888a0312156113fd576113fc610deb565b5b600088013567ffffffffffffffff81111561141b5761141a610df0565b5b6114278a828b01610f0d565b97505060206114388a828b01610f5c565b965050604088013567ffffffffffffffff81111561145957611458610df0565b5b6114658a828b01610f0d565b955050606088013567ffffffffffffffff81111561148657611485610df0565b5b6114928a828b01610f0d565b945050608088013567ffffffffffffffff8111156114b3576114b2610df0565b5b6114bf8a828b01610f0d565b93505060a088013567ffffffffffffffff8111156114e0576114df610df0565b5b6114ec8a828b01610f0d565b92505060c088013567ffffffffffffffff81111561150d5761150c610df0565b5b6115198a828b01610f0d565b91505092959891949750929550565b611531816112bb565b82525050565b600060208201905061154c6000830184611528565b92915050565b61155b81610f3b565b82525050565b6000604082019050818103600083015261157b818561132f565b905061158a6020830184611552565b9392505050565b7f4e487b7100000000000000000000000000000000000000000000000000000000600052602260045260246000fd5b600060028204905060018216806115d857607f821691505b6020821081036115eb576115ea611591565b5b5091905056fea2646970667358221220680a1dea87a9f5581ed2c0636e1fdb617895e378ea79e777adb7ab0db6b0120c64736f6c634300080d0033",
  "immutableReferences": {},
  "source": "pragma solidity >=0.4.22 <0.9.0;\r\n\r\ncontract Course {\r\n    struct class {\r\n        string userId;\r\n        uint classId;\r\n        string completedDate;\r\n        string name;\r\n        string detail;\r\n        string teacher;\r\n        string category;\r\n    }\r\n\r\n    struct classData {\r\n        string completedDate;\r\n        string name;\r\n        string detail;\r\n        string teacher;\r\n        string category;\r\n    }\r\n\r\n    class[] cls;\r\n    mapping(bytes32 => classData) public classes;\r\n\r\n    function save(\r\n        string memory userId,\r\n        uint classId,\r\n        string memory completedDate,\r\n        string memory name,\r\n        string memory detail,\r\n        string memory teacher,\r\n        string memory category) public returns (bytes32){\r\n        cls.push(class(userId, classId, completedDate, name, detail, teacher, category));\r\n        bytes32 key = keccak256(abi.encode(userId, classId));\r\n        classes[key] = classData(completedDate, name, detail, teacher, category);\r\n        return key;\r\n    }\r\n\r\n    function readAll() public view returns (class[] memory) {\r\n        return cls;\r\n    }\r\n\r\n    function read(\r\n        string memory userId,\r\n        uint classId) public view returns (classData memory) {\r\n        bytes32 key = keccak256(abi.encode(userId, classId));\r\n        return classes[key];\r\n    }\r\n}\r\n",
  "sourcePath": "C:\\Users\\kym59\\Desktop\\\\Baleum\\server\\contracts\\Course.sol",
  "compiler": {
    "name": "solc",
    "version": "0.8.13+commit.abaa5c0e.Emscripten.clang"
  },
  "schemaVersion": "3.4.7",
  "updatedAt": "2022-04-24T05:19:59.379Z",
  "devdoc": {
    "kind": "dev",
    "methods": {},
    "version": 1
  },
  "userdoc": {
    "kind": "user",
    "methods": {},
    "version": 1
  }
}