{
  "contractName": "Learn",
  "abi": [
    {
      "inputs": [
        {
          "internalType": "bytes32",
          "name": "",
          "type": "bytes32"
        }
      ],
      "name": "processes",
      "outputs": [
        {
          "internalType": "string",
          "name": "date",
          "type": "string"
        },
        {
          "internalType": "string",
          "name": "state",
          "type": "string"
        },
        {
          "internalType": "uint256",
          "name": "score",
          "type": "uint256"
        },
        {
          "internalType": "string",
          "name": "feedback",
          "type": "string"
        }
      ],
      "stateMutability": "view",
      "type": "function"
    },
    {
      "inputs": [
        {
          "internalType": "uint256",
          "name": "classId",
          "type": "uint256"
        },
        {
          "internalType": "uint256",
          "name": "contentId",
          "type": "uint256"
        },
        {
          "internalType": "string",
          "name": "userId",
          "type": "string"
        },
        {
          "internalType": "string",
          "name": "date",
          "type": "string"
        },
        {
          "internalType": "string",
          "name": "state",
          "type": "string"
        },
        {
          "internalType": "uint256",
          "name": "score",
          "type": "uint256"
        },
        {
          "internalType": "string",
          "name": "feedback",
          "type": "string"
        }
      ],
      "name": "save",
      "outputs": [
        {
          "internalType": "bytes32",
          "name": "",
          "type": "bytes32"
        }
      ],
      "stateMutability": "nonpayable",
      "type": "function"
    },
    {
      "inputs": [],
      "name": "readAll",
      "outputs": [
        {
          "components": [
            {
              "internalType": "uint256",
              "name": "classId",
              "type": "uint256"
            },
            {
              "internalType": "uint256",
              "name": "contentId",
              "type": "uint256"
            },
            {
              "internalType": "string",
              "name": "userId",
              "type": "string"
            },
            {
              "internalType": "string",
              "name": "date",
              "type": "string"
            },
            {
              "internalType": "string",
              "name": "state",
              "type": "string"
            },
            {
              "internalType": "uint256",
              "name": "score",
              "type": "uint256"
            },
            {
              "internalType": "string",
              "name": "feedback",
              "type": "string"
            }
          ],
          "internalType": "struct Learn.process[]",
          "name": "",
          "type": "tuple[]"
        }
      ],
      "stateMutability": "view",
      "type": "function"
    },
    {
      "inputs": [
        {
          "internalType": "uint256",
          "name": "classId",
          "type": "uint256"
        },
        {
          "internalType": "uint256",
          "name": "contentId",
          "type": "uint256"
        },
        {
          "internalType": "string",
          "name": "userId",
          "type": "string"
        }
      ],
      "name": "read",
      "outputs": [
        {
          "components": [
            {
              "internalType": "string",
              "name": "date",
              "type": "string"
            },
            {
              "internalType": "string",
              "name": "state",
              "type": "string"
            },
            {
              "internalType": "uint256",
              "name": "score",
              "type": "uint256"
            },
            {
              "internalType": "string",
              "name": "feedback",
              "type": "string"
            }
          ],
          "internalType": "struct Learn.processData",
          "name": "",
          "type": "tuple"
        }
      ],
      "stateMutability": "view",
      "type": "function"
    },
    {
      "inputs": [
        {
          "internalType": "bytes32",
          "name": "key",
          "type": "bytes32"
        }
      ],
      "name": "readByKey",
      "outputs": [
        {
          "components": [
            {
              "internalType": "string",
              "name": "date",
              "type": "string"
            },
            {
              "internalType": "string",
              "name": "state",
              "type": "string"
            },
            {
              "internalType": "uint256",
              "name": "score",
              "type": "uint256"
            },
            {
              "internalType": "string",
              "name": "feedback",
              "type": "string"
            }
          ],
          "internalType": "struct Learn.processData",
          "name": "",
          "type": "tuple"
        }
      ],
      "stateMutability": "view",
      "type": "function"
    }
  ],
  "bytecode": "0x608060405234801561001057600080fd5b5061144e806100206000396000f3fe608060405234801561001057600080fd5b50600436106100575760003560e01c80630535fece1461005c5780631ff3e6481461008f57806341f654f7146100bf5780635eeb6cfc146100dd578063741937ca1461010d575b600080fd5b61007660048036038101906100719190610cb4565b61013d565b6040516100869493929190610d93565b60405180910390f35b6100a960048036038101906100a49190610f4e565b610305565b6040516100b6919061106f565b60405180910390f35b6100c76104ce565b6040516100d49190611256565b60405180910390f35b6100f760048036038101906100f29190611278565b610793565b6040516101049190611358565b60405180910390f35b61012760048036038101906101229190610cb4565b6109b2565b6040516101349190611358565b60405180910390f35b6001602052806000526040600020600091509050806000018054610160906113a9565b80601f016020809104026020016040519081016040528092919081815260200182805461018c906113a9565b80156101d95780601f106101ae576101008083540402835291602001916101d9565b820191906000526020600020905b8154815290600101906020018083116101bc57829003601f168201915b5050505050908060010180546101ee906113a9565b80601f016020809104026020016040519081016040528092919081815260200182805461021a906113a9565b80156102675780601f1061023c57610100808354040283529160200191610267565b820191906000526020600020905b81548152906001019060200180831161024a57829003601f168201915b505050505090806002015490806003018054610282906113a9565b80601f01602080910402602001604051908101604052809291908181526020018280546102ae906113a9565b80156102fb5780601f106102d0576101008083540402835291602001916102fb565b820191906000526020600020905b8154815290600101906020018083116102de57829003601f168201915b5050505050905084565b6000806040518060e001604052808a815260200189815260200188815260200187815260200186815260200185815260200184815250908060018154018082558091505060019003906000526020600020906007020160009091909190915060008201518160000155602082015181600101556040820151816002019080519060200190610394929190610b9f565b5060608201518160030190805190602001906103b1929190610b9f565b5060808201518160040190805190602001906103ce929190610b9f565b5060a0820151816005015560c08201518160060190805190602001906103f5929190610b9f565b505050600088888860405160200161040f939291906113da565b604051602081830303815290604052805190602001209050604051806080016040528087815260200186815260200185815260200184815250600160008381526020019081526020016000206000820151816000019080519060200190610477929190610b9f565b506020820151816001019080519060200190610494929190610b9f565b506040820151816002015560608201518160030190805190602001906104bb929190610b9f565b5090505080915050979650505050505050565b60606000805480602002602001604051908101604052809291908181526020016000905b8282101561078a57838290600052602060002090600702016040518060e00160405290816000820154815260200160018201548152602001600282018054610539906113a9565b80601f0160208091040260200160405190810160405280929190818152602001828054610565906113a9565b80156105b25780601f10610587576101008083540402835291602001916105b2565b820191906000526020600020905b81548152906001019060200180831161059557829003601f168201915b505050505081526020016003820180546105cb906113a9565b80601f01602080910402602001604051908101604052809291908181526020018280546105f7906113a9565b80156106445780601f1061061957610100808354040283529160200191610644565b820191906000526020600020905b81548152906001019060200180831161062757829003601f168201915b5050505050815260200160048201805461065d906113a9565b80601f0160208091040260200160405190810160405280929190818152602001828054610689906113a9565b80156106d65780601f106106ab576101008083540402835291602001916106d6565b820191906000526020600020905b8154815290600101906020018083116106b957829003601f168201915b50505050508152602001600582015481526020016006820180546106f9906113a9565b80601f0160208091040260200160405190810160405280929190818152602001828054610725906113a9565b80156107725780601f1061074757610100808354040283529160200191610772565b820191906000526020600020905b81548152906001019060200180831161075557829003601f168201915b505050505081525050815260200190600101906104f2565b50505050905090565b61079b610c25565b60008484846040516020016107b2939291906113da565b604051602081830303815290604052805190602001209050600160008281526020019081526020016000206040518060800160405290816000820180546107f8906113a9565b80601f0160208091040260200160405190810160405280929190818152602001828054610824906113a9565b80156108715780601f1061084657610100808354040283529160200191610871565b820191906000526020600020905b81548152906001019060200180831161085457829003601f168201915b5050505050815260200160018201805461088a906113a9565b80601f01602080910402602001604051908101604052809291908181526020018280546108b6906113a9565b80156109035780601f106108d857610100808354040283529160200191610903565b820191906000526020600020905b8154815290600101906020018083116108e657829003601f168201915b5050505050815260200160028201548152602001600382018054610926906113a9565b80601f0160208091040260200160405190810160405280929190818152602001828054610952906113a9565b801561099f5780601f106109745761010080835404028352916020019161099f565b820191906000526020600020905b81548152906001019060200180831161098257829003601f168201915b5050505050815250509150509392505050565b6109ba610c25565b600160008381526020019081526020016000206040518060800160405290816000820180546109e8906113a9565b80601f0160208091040260200160405190810160405280929190818152602001828054610a14906113a9565b8015610a615780601f10610a3657610100808354040283529160200191610a61565b820191906000526020600020905b815481529060010190602001808311610a4457829003601f168201915b50505050508152602001600182018054610a7a906113a9565b80601f0160208091040260200160405190810160405280929190818152602001828054610aa6906113a9565b8015610af35780601f10610ac857610100808354040283529160200191610af3565b820191906000526020600020905b815481529060010190602001808311610ad657829003601f168201915b5050505050815260200160028201548152602001600382018054610b16906113a9565b80601f0160208091040260200160405190810160405280929190818152602001828054610b42906113a9565b8015610b8f5780601f10610b6457610100808354040283529160200191610b8f565b820191906000526020600020905b815481529060010190602001808311610b7257829003601f168201915b5050505050815250509050919050565b828054610bab906113a9565b90600052602060002090601f016020900481019282610bcd5760008555610c14565b82601f10610be657805160ff1916838001178555610c14565b82800160010185558215610c14579182015b82811115610c13578251825591602001919060010190610bf8565b5b509050610c219190610c4d565b5090565b6040518060800160405280606081526020016060815260200160008152602001606081525090565b5b80821115610c66576000816000905550600101610c4e565b5090565b6000604051905090565b600080fd5b600080fd5b6000819050919050565b610c9181610c7e565b8114610c9c57600080fd5b50565b600081359050610cae81610c88565b92915050565b600060208284031215610cca57610cc9610c74565b5b6000610cd884828501610c9f565b91505092915050565b600081519050919050565b600082825260208201905092915050565b60005b83811015610d1b578082015181840152602081019050610d00565b83811115610d2a576000848401525b50505050565b6000601f19601f8301169050919050565b6000610d4c82610ce1565b610d568185610cec565b9350610d66818560208601610cfd565b610d6f81610d30565b840191505092915050565b6000819050919050565b610d8d81610d7a565b82525050565b60006080820190508181036000830152610dad8187610d41565b90508181036020830152610dc18186610d41565b9050610dd06040830185610d84565b8181036060830152610de28184610d41565b905095945050505050565b610df681610d7a565b8114610e0157600080fd5b50565b600081359050610e1381610ded565b92915050565b600080fd5b600080fd5b7f4e487b7100000000000000000000000000000000000000000000000000000000600052604160045260246000fd5b610e5b82610d30565b810181811067ffffffffffffffff82111715610e7a57610e79610e23565b5b80604052505050565b6000610e8d610c6a565b9050610e998282610e52565b919050565b600067ffffffffffffffff821115610eb957610eb8610e23565b5b610ec282610d30565b9050602081019050919050565b82818337600083830152505050565b6000610ef1610eec84610e9e565b610e83565b905082815260208101848484011115610f0d57610f0c610e1e565b5b610f18848285610ecf565b509392505050565b600082601f830112610f3557610f34610e19565b5b8135610f45848260208601610ede565b91505092915050565b600080600080600080600060e0888a031215610f6d57610f6c610c74565b5b6000610f7b8a828b01610e04565b9750506020610f8c8a828b01610e04565b965050604088013567ffffffffffffffff811115610fad57610fac610c79565b5b610fb98a828b01610f20565b955050606088013567ffffffffffffffff811115610fda57610fd9610c79565b5b610fe68a828b01610f20565b945050608088013567ffffffffffffffff81111561100757611006610c79565b5b6110138a828b01610f20565b93505060a06110248a828b01610e04565b92505060c088013567ffffffffffffffff81111561104557611044610c79565b5b6110518a828b01610f20565b91505092959891949750929550565b61106981610c7e565b82525050565b60006020820190506110846000830184611060565b92915050565b600081519050919050565b600082825260208201905092915050565b6000819050602082019050919050565b6110bf81610d7a565b82525050565b600082825260208201905092915050565b60006110e182610ce1565b6110eb81856110c5565b93506110fb818560208601610cfd565b61110481610d30565b840191505092915050565b600060e08301600083015161112760008601826110b6565b50602083015161113a60208601826110b6565b506040830151848203604086015261115282826110d6565b9150506060830151848203606086015261116c82826110d6565b9150506080830151848203608086015261118682826110d6565b91505060a083015161119b60a08601826110b6565b5060c083015184820360c08601526111b382826110d6565b9150508091505092915050565b60006111cc838361110f565b905092915050565b6000602082019050919050565b60006111ec8261108a565b6111f68185611095565b935083602082028501611208856110a6565b8060005b85811015611244578484038952815161122585826111c0565b9450611230836111d4565b925060208a0199505060018101905061120c565b50829750879550505050505092915050565b6000602082019050818103600083015261127081846111e1565b905092915050565b60008060006060848603121561129157611290610c74565b5b600061129f86828701610e04565b93505060206112b086828701610e04565b925050604084013567ffffffffffffffff8111156112d1576112d0610c79565b5b6112dd86828701610f20565b9150509250925092565b6000608083016000830151848203600086015261130482826110d6565b9150506020830151848203602086015261131e82826110d6565b915050604083015161133360408601826110b6565b506060830151848203606086015261134b82826110d6565b9150508091505092915050565b6000602082019050818103600083015261137281846112e7565b905092915050565b7f4e487b7100000000000000000000000000000000000000000000000000000000600052602260045260246000fd5b600060028204905060018216806113c157607f821691505b6020821081036113d4576113d361137a565b5b50919050565b60006060820190506113ef6000830186610d84565b6113fc6020830185610d84565b818103604083015261140e8184610d41565b905094935050505056fea264697066735822122024ae91ac0f6e1c10cbd2f57b9c1f5a528de5e7bce3db1513676accf1d3094d5364736f6c634300080d0033",
  "immutableReferences": {},
  "source": "pragma solidity 0.8.13;\r\n\r\ncontract Learn {\r\n\r\n    struct process {\r\n        uint classId;\r\n        uint contentId;\r\n        string userId;\r\n        string date;\r\n        string state;\r\n        uint score;\r\n        string feedback;\r\n    }\r\n\r\n    struct processData {\r\n        string date;\r\n        string state;\r\n        uint score;\r\n        string feedback;\r\n    }\r\n\r\n    process[] pcs;\r\n    mapping(bytes32 => processData) public processes;\r\n\r\n    function save(\r\n        uint classId,\r\n        uint contentId,\r\n        string memory userId,\r\n        string memory date,\r\n        string memory state,\r\n        uint score,\r\n        string memory feedback) public returns (bytes32){\r\n        pcs.push(process(classId, contentId, userId, date, state, score, feedback));\r\n        bytes32 key = keccak256(abi.encode(classId, contentId, userId));\r\n        processes[key] = processData(date, state, score, feedback);\r\n        return key;\r\n    }\r\n\r\n    function readAll() public view returns (process[] memory) {\r\n        return pcs;\r\n    }\r\n\r\n    function read(\r\n        uint classId,\r\n        uint contentId,\r\n        string memory userId) public view returns (processData memory) {\r\n        bytes32 key = keccak256(abi.encode(classId, contentId, userId));\r\n        return processes[key];\r\n    }\r\n\r\n    function readByKey(bytes32 key) public view returns (processData memory) {\r\n        return processes[key];\r\n    }\r\n}\r\n",
  "sourcePath": "C:\\Users\\fabi8\\project\\Baleum\\server\\contracts\\Learn.sol",
  "compiler": {
    "name": "solc",
    "version": "0.8.13+commit.abaa5c0e.Emscripten.clang"
  },
  "schemaVersion": "3.4.6",
  "updatedAt": "2022-04-10T13:39:04.841Z",
  "devdoc": {
    "kind": "dev",
    "methods": {},
    "version": 1
  },
  "userdoc": {
    "kind": "user",
    "methods": {},
    "version": 1
  }
}