{
  "contractName": "Learn",
  "abi": [
    {
      "inputs": [
        {
          "internalType": "bytes32",
          "name": "",
          "type": "bytes32"
        }
      ],
      "name": "processes",
      "outputs": [
        {
          "internalType": "string",
          "name": "date",
          "type": "string"
        },
        {
          "internalType": "string",
          "name": "state",
          "type": "string"
        },
        {
          "internalType": "uint256",
          "name": "score",
          "type": "uint256"
        },
        {
          "internalType": "string",
          "name": "feedback",
          "type": "string"
        }
      ],
      "stateMutability": "view",
      "type": "function"
    },
    {
      "inputs": [
        {
          "internalType": "uint256",
          "name": "classId",
          "type": "uint256"
        },
        {
          "internalType": "uint256",
          "name": "contentId",
          "type": "uint256"
        },
        {
          "internalType": "string",
          "name": "userId",
          "type": "string"
        },
        {
          "internalType": "string",
          "name": "date",
          "type": "string"
        },
        {
          "internalType": "string",
          "name": "state",
          "type": "string"
        },
        {
          "internalType": "uint256",
          "name": "score",
          "type": "uint256"
        },
        {
          "internalType": "string",
          "name": "feedback",
          "type": "string"
        }
      ],
      "name": "save",
      "outputs": [
        {
          "internalType": "bytes32",
          "name": "",
          "type": "bytes32"
        }
      ],
      "stateMutability": "nonpayable",
      "type": "function"
    },
    {
      "inputs": [],
      "name": "readAll",
      "outputs": [
        {
          "components": [
            {
              "internalType": "uint256",
              "name": "classId",
              "type": "uint256"
            },
            {
              "internalType": "uint256",
              "name": "contentId",
              "type": "uint256"
            },
            {
              "internalType": "string",
              "name": "userId",
              "type": "string"
            },
            {
              "internalType": "string",
              "name": "date",
              "type": "string"
            },
            {
              "internalType": "string",
              "name": "state",
              "type": "string"
            },
            {
              "internalType": "uint256",
              "name": "score",
              "type": "uint256"
            },
            {
              "internalType": "string",
              "name": "feedback",
              "type": "string"
            }
          ],
          "internalType": "struct Learn.process[]",
          "name": "",
          "type": "tuple[]"
        }
      ],
      "stateMutability": "view",
      "type": "function"
    },
    {
      "inputs": [
        {
          "internalType": "uint256",
          "name": "classId",
          "type": "uint256"
        },
        {
          "internalType": "uint256",
          "name": "contentId",
          "type": "uint256"
        },
        {
          "internalType": "string",
          "name": "userId",
          "type": "string"
        }
      ],
      "name": "read",
      "outputs": [
        {
          "components": [
            {
              "internalType": "string",
              "name": "date",
              "type": "string"
            },
            {
              "internalType": "string",
              "name": "state",
              "type": "string"
            },
            {
              "internalType": "uint256",
              "name": "score",
              "type": "uint256"
            },
            {
              "internalType": "string",
              "name": "feedback",
              "type": "string"
            }
          ],
          "internalType": "struct Learn.processData",
          "name": "",
          "type": "tuple"
        }
      ],
      "stateMutability": "view",
      "type": "function"
    }
  ],
  "bytecode": "0x608060405234801561001057600080fd5b50611226806100206000396000f3fe608060405234801561001057600080fd5b506004361061004c5760003560e01c80630535fece146100515780631ff3e6481461008457806341f654f7146100b45780635eeb6cfc146100d2575b600080fd5b61006b60048036038101906100669190610a8c565b610102565b60405161007b9493929190610b6b565b60405180910390f35b61009e60048036038101906100999190610d26565b6102ca565b6040516100ab9190610e47565b60405180910390f35b6100bc610493565b6040516100c9919061102e565b60405180910390f35b6100ec60048036038101906100e79190611050565b610758565b6040516100f99190611130565b60405180910390f35b600160205280600052604060002060009150905080600001805461012590611181565b80601f016020809104026020016040519081016040528092919081815260200182805461015190611181565b801561019e5780601f106101735761010080835404028352916020019161019e565b820191906000526020600020905b81548152906001019060200180831161018157829003601f168201915b5050505050908060010180546101b390611181565b80601f01602080910402602001604051908101604052809291908181526020018280546101df90611181565b801561022c5780601f106102015761010080835404028352916020019161022c565b820191906000526020600020905b81548152906001019060200180831161020f57829003601f168201915b50505050509080600201549080600301805461024790611181565b80601f016020809104026020016040519081016040528092919081815260200182805461027390611181565b80156102c05780601f10610295576101008083540402835291602001916102c0565b820191906000526020600020905b8154815290600101906020018083116102a357829003601f168201915b5050505050905084565b6000806040518060e001604052808a815260200189815260200188815260200187815260200186815260200185815260200184815250908060018154018082558091505060019003906000526020600020906007020160009091909190915060008201518160000155602082015181600101556040820151816002019080519060200190610359929190610977565b506060820151816003019080519060200190610376929190610977565b506080820151816004019080519060200190610393929190610977565b5060a0820151816005015560c08201518160060190805190602001906103ba929190610977565b50505060008888886040516020016103d4939291906111b2565b60405160208183030381529060405280519060200120905060405180608001604052808781526020018681526020018581526020018481525060016000838152602001908152602001600020600082015181600001908051906020019061043c929190610977565b506020820151816001019080519060200190610459929190610977565b50604082015181600201556060820151816003019080519060200190610480929190610977565b5090505080915050979650505050505050565b60606000805480602002602001604051908101604052809291908181526020016000905b8282101561074f57838290600052602060002090600702016040518060e001604052908160008201548152602001600182015481526020016002820180546104fe90611181565b80601f016020809104026020016040519081016040528092919081815260200182805461052a90611181565b80156105775780601f1061054c57610100808354040283529160200191610577565b820191906000526020600020905b81548152906001019060200180831161055a57829003601f168201915b5050505050815260200160038201805461059090611181565b80601f01602080910402602001604051908101604052809291908181526020018280546105bc90611181565b80156106095780601f106105de57610100808354040283529160200191610609565b820191906000526020600020905b8154815290600101906020018083116105ec57829003601f168201915b5050505050815260200160048201805461062290611181565b80601f016020809104026020016040519081016040528092919081815260200182805461064e90611181565b801561069b5780601f106106705761010080835404028352916020019161069b565b820191906000526020600020905b81548152906001019060200180831161067e57829003601f168201915b50505050508152602001600582015481526020016006820180546106be90611181565b80601f01602080910402602001604051908101604052809291908181526020018280546106ea90611181565b80156107375780601f1061070c57610100808354040283529160200191610737565b820191906000526020600020905b81548152906001019060200180831161071a57829003601f168201915b505050505081525050815260200190600101906104b7565b50505050905090565b6107606109fd565b6000848484604051602001610777939291906111b2565b604051602081830303815290604052805190602001209050600160008281526020019081526020016000206040518060800160405290816000820180546107bd90611181565b80601f01602080910402602001604051908101604052809291908181526020018280546107e990611181565b80156108365780601f1061080b57610100808354040283529160200191610836565b820191906000526020600020905b81548152906001019060200180831161081957829003601f168201915b5050505050815260200160018201805461084f90611181565b80601f016020809104026020016040519081016040528092919081815260200182805461087b90611181565b80156108c85780601f1061089d576101008083540402835291602001916108c8565b820191906000526020600020905b8154815290600101906020018083116108ab57829003601f168201915b50505050508152602001600282015481526020016003820180546108eb90611181565b80601f016020809104026020016040519081016040528092919081815260200182805461091790611181565b80156109645780601f1061093957610100808354040283529160200191610964565b820191906000526020600020905b81548152906001019060200180831161094757829003601f168201915b5050505050815250509150509392505050565b82805461098390611181565b90600052602060002090601f0160209004810192826109a557600085556109ec565b82601f106109be57805160ff19168380011785556109ec565b828001600101855582156109ec579182015b828111156109eb5782518255916020019190600101906109d0565b5b5090506109f99190610a25565b5090565b6040518060800160405280606081526020016060815260200160008152602001606081525090565b5b80821115610a3e576000816000905550600101610a26565b5090565b6000604051905090565b600080fd5b600080fd5b6000819050919050565b610a6981610a56565b8114610a7457600080fd5b50565b600081359050610a8681610a60565b92915050565b600060208284031215610aa257610aa1610a4c565b5b6000610ab084828501610a77565b91505092915050565b600081519050919050565b600082825260208201905092915050565b60005b83811015610af3578082015181840152602081019050610ad8565b83811115610b02576000848401525b50505050565b6000601f19601f8301169050919050565b6000610b2482610ab9565b610b2e8185610ac4565b9350610b3e818560208601610ad5565b610b4781610b08565b840191505092915050565b6000819050919050565b610b6581610b52565b82525050565b60006080820190508181036000830152610b858187610b19565b90508181036020830152610b998186610b19565b9050610ba86040830185610b5c565b8181036060830152610bba8184610b19565b905095945050505050565b610bce81610b52565b8114610bd957600080fd5b50565b600081359050610beb81610bc5565b92915050565b600080fd5b600080fd5b7f4e487b7100000000000000000000000000000000000000000000000000000000600052604160045260246000fd5b610c3382610b08565b810181811067ffffffffffffffff82111715610c5257610c51610bfb565b5b80604052505050565b6000610c65610a42565b9050610c718282610c2a565b919050565b600067ffffffffffffffff821115610c9157610c90610bfb565b5b610c9a82610b08565b9050602081019050919050565b82818337600083830152505050565b6000610cc9610cc484610c76565b610c5b565b905082815260208101848484011115610ce557610ce4610bf6565b5b610cf0848285610ca7565b509392505050565b600082601f830112610d0d57610d0c610bf1565b5b8135610d1d848260208601610cb6565b91505092915050565b600080600080600080600060e0888a031215610d4557610d44610a4c565b5b6000610d538a828b01610bdc565b9750506020610d648a828b01610bdc565b965050604088013567ffffffffffffffff811115610d8557610d84610a51565b5b610d918a828b01610cf8565b955050606088013567ffffffffffffffff811115610db257610db1610a51565b5b610dbe8a828b01610cf8565b945050608088013567ffffffffffffffff811115610ddf57610dde610a51565b5b610deb8a828b01610cf8565b93505060a0610dfc8a828b01610bdc565b92505060c088013567ffffffffffffffff811115610e1d57610e1c610a51565b5b610e298a828b01610cf8565b91505092959891949750929550565b610e4181610a56565b82525050565b6000602082019050610e5c6000830184610e38565b92915050565b600081519050919050565b600082825260208201905092915050565b6000819050602082019050919050565b610e9781610b52565b82525050565b600082825260208201905092915050565b6000610eb982610ab9565b610ec38185610e9d565b9350610ed3818560208601610ad5565b610edc81610b08565b840191505092915050565b600060e083016000830151610eff6000860182610e8e565b506020830151610f126020860182610e8e565b5060408301518482036040860152610f2a8282610eae565b91505060608301518482036060860152610f448282610eae565b91505060808301518482036080860152610f5e8282610eae565b91505060a0830151610f7360a0860182610e8e565b5060c083015184820360c0860152610f8b8282610eae565b9150508091505092915050565b6000610fa48383610ee7565b905092915050565b6000602082019050919050565b6000610fc482610e62565b610fce8185610e6d565b935083602082028501610fe085610e7e565b8060005b8581101561101c5784840389528151610ffd8582610f98565b945061100883610fac565b925060208a01995050600181019050610fe4565b50829750879550505050505092915050565b600060208201905081810360008301526110488184610fb9565b905092915050565b60008060006060848603121561106957611068610a4c565b5b600061107786828701610bdc565b935050602061108886828701610bdc565b925050604084013567ffffffffffffffff8111156110a9576110a8610a51565b5b6110b586828701610cf8565b9150509250925092565b600060808301600083015184820360008601526110dc8282610eae565b915050602083015184820360208601526110f68282610eae565b915050604083015161110b6040860182610e8e565b50606083015184820360608601526111238282610eae565b9150508091505092915050565b6000602082019050818103600083015261114a81846110bf565b905092915050565b7f4e487b7100000000000000000000000000000000000000000000000000000000600052602260045260246000fd5b6000600282049050600182168061119957607f821691505b6020821081036111ac576111ab611152565b5b50919050565b60006060820190506111c76000830186610b5c565b6111d46020830185610b5c565b81810360408301526111e68184610b19565b905094935050505056fea2646970667358221220270efd312ceed5c61f511cc4bf0e2068bde1cecd76d53916dc6b5177670424db64736f6c634300080d0033",
  "immutableReferences": {},
  "source": "pragma solidity >=0.4.22 <0.9.0;\r\n\r\ncontract Learn {\r\n\r\n    struct process {\r\n        uint classId;\r\n        uint contentId;\r\n        string userId;\r\n        string date;\r\n        string state;\r\n        uint score;\r\n        string feedback;\r\n    }\r\n\r\n    struct processData {\r\n        string date;\r\n        string state;\r\n        uint score;\r\n        string feedback;\r\n    }\r\n\r\n    process[] pcs;\r\n    mapping(bytes32 => processData) public processes;\r\n\r\n    function save(\r\n        uint classId,\r\n        uint contentId,\r\n        string memory userId,\r\n        string memory date,\r\n        string memory state,\r\n        uint score,\r\n        string memory feedback) public returns (bytes32){\r\n        pcs.push(process(classId, contentId, userId, date, state, score, feedback));\r\n        bytes32 key = keccak256(abi.encode(classId, contentId, userId));\r\n        processes[key] = processData(date, state, score, feedback);\r\n        return key;\r\n    }\r\n\r\n    function readAll() public view returns (process[] memory) {\r\n        return pcs;\r\n    }\r\n\r\n    function read(\r\n        uint classId,\r\n        uint contentId,\r\n        string memory userId) public view returns (processData memory) {\r\n        bytes32 key = keccak256(abi.encode(classId, contentId, userId));\r\n        return processes[key];\r\n    }\r\n}\r\n",
  "sourcePath": "C:\\Users\\kym59\\Desktop\\\\Baleum\\server\\contracts\\Learn.sol",
  "compiler": {
    "name": "solc",
    "version": "0.8.13+commit.abaa5c0e.Emscripten.clang"
  },
  "schemaVersion": "3.4.7",
  "updatedAt": "2022-04-24T05:19:59.387Z",
  "devdoc": {
    "kind": "dev",
    "methods": {},
    "version": 1
  },
  "userdoc": {
    "kind": "user",
    "methods": {},
    "version": 1
  }
}