{
  "contractName": "Learn",
  "abi": [
    {
      "constant": true,
      "inputs": [
        {
          "internalType": "bytes32",
          "name": "",
          "type": "bytes32"
        }
      ],
      "name": "processes",
      "outputs": [
        {
          "internalType": "string",
          "name": "date",
          "type": "string"
        },
        {
          "internalType": "string",
          "name": "state",
          "type": "string"
        },
        {
          "internalType": "uint256",
          "name": "score",
          "type": "uint256"
        },
        {
          "internalType": "string",
          "name": "feedback",
          "type": "string"
        }
      ],
      "payable": false,
      "stateMutability": "view",
      "type": "function"
    },
    {
      "constant": false,
      "inputs": [
        {
          "internalType": "uint256",
          "name": "classId",
          "type": "uint256"
        },
        {
          "internalType": "uint256",
          "name": "contentId",
          "type": "uint256"
        },
        {
          "internalType": "string",
          "name": "userId",
          "type": "string"
        },
        {
          "internalType": "string",
          "name": "date",
          "type": "string"
        },
        {
          "internalType": "string",
          "name": "state",
          "type": "string"
        },
        {
          "internalType": "uint256",
          "name": "score",
          "type": "uint256"
        },
        {
          "internalType": "string",
          "name": "feedback",
          "type": "string"
        }
      ],
      "name": "save",
      "outputs": [
        {
          "internalType": "bytes32",
          "name": "",
          "type": "bytes32"
        }
      ],
      "payable": false,
      "stateMutability": "nonpayable",
      "type": "function"
    },
    {
      "constant": true,
      "inputs": [],
      "name": "readAll",
      "outputs": [
        {
          "components": [
            {
              "internalType": "uint256",
              "name": "classId",
              "type": "uint256"
            },
            {
              "internalType": "uint256",
              "name": "contentId",
              "type": "uint256"
            },
            {
              "internalType": "string",
              "name": "userId",
              "type": "string"
            },
            {
              "internalType": "string",
              "name": "date",
              "type": "string"
            },
            {
              "internalType": "string",
              "name": "state",
              "type": "string"
            },
            {
              "internalType": "uint256",
              "name": "score",
              "type": "uint256"
            },
            {
              "internalType": "string",
              "name": "feedback",
              "type": "string"
            }
          ],
          "internalType": "struct Learn.process[]",
          "name": "",
          "type": "tuple[]"
        }
      ],
      "payable": false,
      "stateMutability": "view",
      "type": "function"
    },
    {
      "constant": true,
      "inputs": [
        {
          "internalType": "uint256",
          "name": "classId",
          "type": "uint256"
        },
        {
          "internalType": "uint256",
          "name": "contentId",
          "type": "uint256"
        },
        {
          "internalType": "string",
          "name": "userId",
          "type": "string"
        }
      ],
      "name": "read",
      "outputs": [
        {
          "components": [
            {
              "internalType": "string",
              "name": "date",
              "type": "string"
            },
            {
              "internalType": "string",
              "name": "state",
              "type": "string"
            },
            {
              "internalType": "uint256",
              "name": "score",
              "type": "uint256"
            },
            {
              "internalType": "string",
              "name": "feedback",
              "type": "string"
            }
          ],
          "internalType": "struct Learn.processData",
          "name": "",
          "type": "tuple"
        }
      ],
      "payable": false,
      "stateMutability": "view",
      "type": "function"
    },
    {
      "constant": true,
      "inputs": [
        {
          "internalType": "bytes32",
          "name": "key",
          "type": "bytes32"
        }
      ],
      "name": "readByKey",
      "outputs": [
        {
          "components": [
            {
              "internalType": "string",
              "name": "date",
              "type": "string"
            },
            {
              "internalType": "string",
              "name": "state",
              "type": "string"
            },
            {
              "internalType": "uint256",
              "name": "score",
              "type": "uint256"
            },
            {
              "internalType": "string",
              "name": "feedback",
              "type": "string"
            }
          ],
          "internalType": "struct Learn.processData",
          "name": "",
          "type": "tuple"
        }
      ],
      "payable": false,
      "stateMutability": "view",
      "type": "function"
    }
  ],
  "bytecode": "0x608060405234801561001057600080fd5b50611467806100206000396000f3fe608060405234801561001057600080fd5b50600436106100575760003560e01c80630535fece1461005c5780631ff3e6481461008f57806341f654f7146100bf5780635eeb6cfc146100dd578063741937ca1461010d575b600080fd5b61007660048036036100719190810190610dbd565b61013d565b604051610086949392919061120b565b60405180910390f35b6100a960048036036100a49190810190610e4d565b610335565b6040516100b691906111f0565b60405180910390f35b6100c7610501565b6040516100d491906111ce565b60405180910390f35b6100f760048036036100f29190810190610de6565b610806565b6040516101049190611265565b60405180910390f35b61012760048036036101229190810190610dbd565b610a55565b6040516101349190611265565b60405180910390f35b6001602052806000526040600020600091509050806000018054600181600116156101000203166002900480601f0160208091040260200160405190810160405280929190818152602001828054600181600116156101000203166002900480156101e95780601f106101be576101008083540402835291602001916101e9565b820191906000526020600020905b8154815290600101906020018083116101cc57829003601f168201915b505050505090806001018054600181600116156101000203166002900480601f0160208091040260200160405190810160405280929190818152602001828054600181600116156101000203166002900480156102875780601f1061025c57610100808354040283529160200191610287565b820191906000526020600020905b81548152906001019060200180831161026a57829003601f168201915b505050505090806002015490806003018054600181600116156101000203166002900480601f01602080910402602001604051908101604052809291908181526020018280546001816001161561010002031660029004801561032b5780601f106103005761010080835404028352916020019161032b565b820191906000526020600020905b81548152906001019060200180831161030e57829003601f168201915b5050505050905084565b6000806040518060e001604052808a81526020018981526020018881526020018781526020018681526020018581526020018481525090806001815401808255809150509060018203906000526020600020906007020160009091929091909150600082015181600001556020820151816001015560408201518160020190805190602001906103c6929190610c72565b5060608201518160030190805190602001906103e3929190610c72565b506080820151816004019080519060200190610400929190610c72565b5060a0820151816005015560c0820151816006019080519060200190610427929190610c72565b50505050600088888860405160200161044293929190611287565b6040516020818303038152906040528051906020012090506040518060800160405280878152602001868152602001858152602001848152506001600083815260200190815260200160002060008201518160000190805190602001906104aa929190610c72565b5060208201518160010190805190602001906104c7929190610c72565b506040820151816002015560608201518160030190805190602001906104ee929190610c72565b5090505080915050979650505050505050565b60606000805480602002602001604051908101604052809291908181526020016000905b828210156107fd57838290600052602060002090600702016040518060e00160405290816000820154815260200160018201548152602001600282018054600181600116156101000203166002900480601f0160208091040260200160405190810160405280929190818152602001828054600181600116156101000203166002900480156105f55780601f106105ca576101008083540402835291602001916105f5565b820191906000526020600020905b8154815290600101906020018083116105d857829003601f168201915b50505050508152602001600382018054600181600116156101000203166002900480601f0160208091040260200160405190810160405280929190818152602001828054600181600116156101000203166002900480156106975780601f1061066c57610100808354040283529160200191610697565b820191906000526020600020905b81548152906001019060200180831161067a57829003601f168201915b50505050508152602001600482018054600181600116156101000203166002900480601f0160208091040260200160405190810160405280929190818152602001828054600181600116156101000203166002900480156107395780601f1061070e57610100808354040283529160200191610739565b820191906000526020600020905b81548152906001019060200180831161071c57829003601f168201915b5050505050815260200160058201548152602001600682018054600181600116156101000203166002900480601f0160208091040260200160405190810160405280929190818152602001828054600181600116156101000203166002900480156107e55780601f106107ba576101008083540402835291602001916107e5565b820191906000526020600020905b8154815290600101906020018083116107c857829003601f168201915b50505050508152505081526020019060010190610525565b50505050905090565b61080e610cf2565b600084848460405160200161082593929190611287565b60405160208183030381529060405280519060200120905060016000828152602001908152602001600020604051806080016040529081600082018054600181600116156101000203166002900480601f0160208091040260200160405190810160405280929190818152602001828054600181600116156101000203166002900480156108f45780601f106108c9576101008083540402835291602001916108f4565b820191906000526020600020905b8154815290600101906020018083116108d757829003601f168201915b50505050508152602001600182018054600181600116156101000203166002900480601f0160208091040260200160405190810160405280929190818152602001828054600181600116156101000203166002900480156109965780601f1061096b57610100808354040283529160200191610996565b820191906000526020600020905b81548152906001019060200180831161097957829003601f168201915b5050505050815260200160028201548152602001600382018054600181600116156101000203166002900480601f016020809104026020016040519081016040528092919081815260200182805460018160011615610100020316600290048015610a425780601f10610a1757610100808354040283529160200191610a42565b820191906000526020600020905b815481529060010190602001808311610a2557829003601f168201915b5050505050815250509150509392505050565b610a5d610cf2565b60016000838152602001908152602001600020604051806080016040529081600082018054600181600116156101000203166002900480601f016020809104026020016040519081016040528092919081815260200182805460018160011615610100020316600290048015610b145780601f10610ae957610100808354040283529160200191610b14565b820191906000526020600020905b815481529060010190602001808311610af757829003601f168201915b50505050508152602001600182018054600181600116156101000203166002900480601f016020809104026020016040519081016040528092919081815260200182805460018160011615610100020316600290048015610bb65780601f10610b8b57610100808354040283529160200191610bb6565b820191906000526020600020905b815481529060010190602001808311610b9957829003601f168201915b5050505050815260200160028201548152602001600382018054600181600116156101000203166002900480601f016020809104026020016040519081016040528092919081815260200182805460018160011615610100020316600290048015610c625780601f10610c3757610100808354040283529160200191610c62565b820191906000526020600020905b815481529060010190602001808311610c4557829003601f168201915b5050505050815250509050919050565b828054600181600116156101000203166002900490600052602060002090601f016020900481019282601f10610cb357805160ff1916838001178555610ce1565b82800160010185558215610ce1579182015b82811115610ce0578251825591602001919060010190610cc5565b5b509050610cee9190610d1a565b5090565b6040518060800160405280606081526020016060815260200160008152602001606081525090565b610d3c91905b80821115610d38576000816000905550600101610d20565b5090565b90565b600081359050610d4e816113f6565b92915050565b600082601f830112610d6557600080fd5b8135610d78610d73826112f2565b6112c5565b91508082526020830160208301858383011115610d9457600080fd5b610d9f8382846113a3565b50505092915050565b600081359050610db78161140d565b92915050565b600060208284031215610dcf57600080fd5b6000610ddd84828501610d3f565b91505092915050565b600080600060608486031215610dfb57600080fd5b6000610e0986828701610da8565b9350506020610e1a86828701610da8565b925050604084013567ffffffffffffffff811115610e3757600080fd5b610e4386828701610d54565b9150509250925092565b600080600080600080600060e0888a031215610e6857600080fd5b6000610e768a828b01610da8565b9750506020610e878a828b01610da8565b965050604088013567ffffffffffffffff811115610ea457600080fd5b610eb08a828b01610d54565b955050606088013567ffffffffffffffff811115610ecd57600080fd5b610ed98a828b01610d54565b945050608088013567ffffffffffffffff811115610ef657600080fd5b610f028a828b01610d54565b93505060a0610f138a828b01610da8565b92505060c088013567ffffffffffffffff811115610f3057600080fd5b610f3c8a828b01610d54565b91505092959891949750929550565b6000610f5783836110ff565b905092915050565b6000610f6a8261132e565b610f74818561135c565b935083602082028501610f868561131e565b8060005b85811015610fc25784840389528151610fa38582610f4b565b9450610fae8361134f565b925060208a01995050600181019050610f8a565b50829750879550505050505092915050565b610fdd8161138f565b82525050565b6000610fee82611344565b610ff8818561137e565b93506110088185602086016113b2565b611011816113e5565b840191505092915050565b600061102782611339565b611031818561136d565b93506110418185602086016113b2565b61104a816113e5565b840191505092915050565b600061106082611339565b61106a818561137e565b935061107a8185602086016113b2565b611083816113e5565b840191505092915050565b600060808301600083015184820360008601526110ab828261101c565b915050602083015184820360208601526110c5828261101c565b91505060408301516110da60408601826111b0565b50606083015184820360608601526110f2828261101c565b9150508091505092915050565b600060e08301600083015161111760008601826111b0565b50602083015161112a60208601826111b0565b5060408301518482036040860152611142828261101c565b9150506060830151848203606086015261115c828261101c565b91505060808301518482036080860152611176828261101c565b91505060a083015161118b60a08601826111b0565b5060c083015184820360c08601526111a3828261101c565b9150508091505092915050565b6111b981611399565b82525050565b6111c881611399565b82525050565b600060208201905081810360008301526111e88184610f5f565b905092915050565b60006020820190506112056000830184610fd4565b92915050565b600060808201905081810360008301526112258187611055565b905081810360208301526112398186611055565b905061124860408301856111bf565b818103606083015261125a8184611055565b905095945050505050565b6000602082019050818103600083015261127f818461108e565b905092915050565b600060608201905061129c60008301866111bf565b6112a960208301856111bf565b81810360408301526112bb8184610fe3565b9050949350505050565b6000604051905081810181811067ffffffffffffffff821117156112e857600080fd5b8060405250919050565b600067ffffffffffffffff82111561130957600080fd5b601f19601f8301169050602081019050919050565b6000819050602082019050919050565b600081519050919050565b600081519050919050565b600081519050919050565b6000602082019050919050565b600082825260208201905092915050565b600082825260208201905092915050565b600082825260208201905092915050565b6000819050919050565b6000819050919050565b82818337600083830152505050565b60005b838110156113d05780820151818401526020810190506113b5565b838111156113df576000848401525b50505050565b6000601f19601f8301169050919050565b6113ff8161138f565b811461140a57600080fd5b50565b61141681611399565b811461142157600080fd5b5056fea365627a7a7231582082b8ad2efedc601b4b9b22a6b89cb2dc4d959d3c6829e9fbabffdc04e1f1f9d66c6578706572696d656e74616cf564736f6c63430005100040",
  "source": "pragma solidity ^0.5.0;\r\npragma experimental ABIEncoderV2;\r\n\r\ncontract Learn {\r\n\r\n    struct process {\r\n        uint classId;\r\n        uint contentId;\r\n        string userId;\r\n        string date;\r\n        string state;\r\n        uint score;\r\n        string feedback;\r\n    }\r\n\r\n    struct processData {\r\n        string date;\r\n        string state;\r\n        uint score;\r\n        string feedback;\r\n    }\r\n\r\n    process[] pcs;\r\n    mapping(bytes32 => processData) public processes;\r\n\r\n    function save(\r\n        uint classId,\r\n        uint contentId,\r\n        string memory userId,\r\n        string memory date,\r\n        string memory state,\r\n        uint score,\r\n        string memory feedback) public returns (bytes32){\r\n        pcs.push(process(classId, contentId, userId, date, state, score, feedback));\r\n        bytes32 key = keccak256(abi.encode(classId, contentId, userId));\r\n        processes[key] = processData(date, state, score, feedback);\r\n        return key;\r\n    }\r\n\r\n    function readAll() public view returns (process[] memory) {\r\n        return pcs;\r\n    }\r\n\r\n    function read(\r\n        uint classId,\r\n        uint contentId,\r\n        string memory userId) public view returns (processData memory) {\r\n        bytes32 key = keccak256(abi.encode(classId, contentId, userId));\r\n        return processes[key];\r\n    }\r\n\r\n    function readByKey(bytes32 key) public view returns (processData memory) {\r\n        return processes[key];\r\n    }\r\n}\r\n",
  "sourcePath": "C:\\Users\\fabi8\\project\\Baleum\\server\\contracts\\Learn.sol",
  "compiler": {
    "name": "solc",
    "version": "0.5.16+commit.9c3226ce.Emscripten.clang"
  },
  "schemaVersion": "3.4.6",
  "updatedAt": "2022-04-11T03:35:08.378Z",
  "devdoc": {
    "methods": {}
  },
  "userdoc": {
    "methods": {}
  }
}